:020000040000FA
:0400000013EF3FF0CB
:107E260000014CEF3FF09392939081828180120083
:107E360081808192680EE82EFED78182680EE82E38
:107E4600FED712008192680EE82EFED78180680E5A
:107E5600E82EFED78182680EE82EFED71200076E46
:107E66001BEC3FF007C001F0026A000E036EA3ECA4
:107E76003FF0E806D8A442EF3FF044EF3FF04BEF67
:107E86003FF006C001F0026A68EC3FF025EC3FF0D7
:107E96001200939492908080000E0A6E16EC3FF0CA
:107EA6000AC006F0230E32EC3FF03D0E096EE10EDD
:107EB600086E400EE82EFED7082EFCD7092EFAD7FC
:107EC6000A2A53EF3FF000EF00F0000E046E000E9A
:107ED600036E8190680EE82EFED701BE75EF3FF067
:107EE60077EF3FF07AEF3FF081927BEF3FF08182B0
:107EF600D8900134016E0234026E8180680EE82E3D
:107F0600FED7034A042A04BE92EF3FF0045009E16B
:107F1600080E035CD8A092EF3FF094EF3FF06CEFB1
:107F26003FF081908182680EE82EFED78180680E30
:107F3600E82EFED78190680EE82EFED781501200FB
:107F4600D8900134016E0234026E0350D8A4AEEF0D
:107F56003FF0B0EF3FF0B6EF3FF0FE0E0114016EBA
:107F6600026ABBEF3FF0010E0110016E0250026E75
:107F7600000E056E000E046E8190680EE82EFED788
:107F860001BEC8EF3FF0CAEF3FF0CDEF3FF0819260
:107F9600CEEF3FF08182D8900134016E0234026E3A
:107FA6008180680EE82EFED7044A052A05BEE5EF55
:107FB6003FF0055009E1080E045CD8A0E5EF3FF05C
:107FC600E7EF3FF0BFEF3FF08190680EE82EFED757
:107FD60081828180680EE82EFED78190680EE82E99
:107FE600FED781A2F9EF3FF0FBEF3FF0FEEF3FF047
:0A7FF600000EFFEF3FF0010E120035
:020000040020DA
:08000000FFFFFFFFFFFFFFFF00
:020000040030CA
:0E000000040E1F1EFF8181FF0FC00FE00F4096
:00000001FF
